{
    "_format": "hh-sol-artifact-1",
    "contractName": "TokenSwap",
    "sourceName": "contracts/TokenSwap.sol",
    "abi": [
        {
            "inputs": [],
            "stateMutability": "nonpayable",
            "type": "constructor"
        },
        {
            "inputs": [],
            "name": "owner",
            "outputs": [
                {
                    "internalType": "address",
                    "name": "",
                    "type": "address"
                }
            ],
            "stateMutability": "view",
            "type": "function"
        },
        {
            "inputs": [
                {
                    "internalType": "address",
                    "name": "_tokenIn",
                    "type": "address"
                },
                {
                    "internalType": "address",
                    "name": "_tokenOut",
                    "type": "address"
                },
                {
                    "internalType": "uint256",
                    "name": "_amountIn",
                    "type": "uint256"
                },
                {
                    "internalType": "address",
                    "name": "_receiver",
                    "type": "address"
                }
            ],
            "name": "swap",
            "outputs": [],
            "stateMutability": "nonpayable",
            "type": "function"
        }
    ],
    "bytecode": "0x6080604052348015600f57600080fd5b50600080546001600160a01b03191633179055610308806100316000396000f3fe608060405234801561001057600080fd5b50600436106100365760003560e01c80636e81221c1461003b5780638da5cb5b14610050575b600080fd5b61004e61004936600461025c565b61007f565b005b600054610063906001600160a01b031681565b6040516001600160a01b03909116815260200160405180910390f35b600082116100d45760405162461bcd60e51b815260206004820181905260248201527f416d6f756e74206d7573742062652067726561746572207468616e207a65726f60448201526064015b60405180910390fd5b6040516323b872dd60e01b8152336004820152306024820152604481018390526001600160a01b038516906323b872dd906064016020604051808303816000875af1158015610127573d6000803e3d6000fd5b505050506040513d601f19601f8201168201806040525081019061014b91906102a9565b6101895760405162461bcd60e51b815260206004820152600f60248201526e151c985b9cd9995c8819985a5b1959608a1b60448201526064016100cb565b60405163a9059cbb60e01b81526001600160a01b0382811660048301526024820184905284169063a9059cbb906044016020604051808303816000875af11580156101d8573d6000803e3d6000fd5b505050506040513d601f19601f820116820180604052508101906101fc91906102a9565b61023a5760405162461bcd60e51b815260206004820152600f60248201526e151c985b9cd9995c8819985a5b1959608a1b60448201526064016100cb565b50505050565b80356001600160a01b038116811461025757600080fd5b919050565b6000806000806080858703121561027257600080fd5b61027b85610240565b935061028960208601610240565b92506040850135915061029e60608601610240565b905092959194509250565b6000602082840312156102bb57600080fd5b815180151581146102cb57600080fd5b939250505056fea26469706673582212207f4e81219e8eabf033729d04df5e1bc24f9b4b3cfe9143921cdadd9b784f197764736f6c634300081c0033",
    "linkReferences": {},
    "deployedLinkReferences": {}
}